:020000040000fa
:080000000002040000000000f2
:020000040000fa
:10000800cc020000cc020000cc020000cc020000b0
:10001800cc020000cc020000cc020000cc020000a0
:10002800cc020000cc020000cc0200004413000007
:10003800cc020000cc020000cc020000cc02000080
:10004800cc020000cc020000cc0200006a190000bb
:10005800a0190000cc020000cc020000cc02000075
:10006800cc020000d6170000cc020000cc02000031
:10007800fc120000cc020000cc020000cc02000000
:10008800cc020000cc020000cc020000cc02000030
:10009800cc020000fa1e0000cc020000cc020000d6
:1000a800cc020000cc020000cc020000cc02000010
:1000b800cc020000cc020000cc020000cc02000000
:1000c800cc020000cc020000cc020000cc020000f0
:1000d800cc020000cc020000cc020000cc020000e0
:1000e800cc020000cc020000cc020000cc020000d0
:1000f800cc020000cc020000cc020000cc020000c0
:10010800cc020000cc020000cc020000cc020000af
:10011800cc020000cc020000cc020000cc0200009f
:10012800cc020000cc020000cc020000cc0200008f
:10013800cc020000cc020000cc020000cc0200007f
:10014800cc020000cc020000cc020000cc0200006f
:10015800cc020000cc020000cc020000cc0200005f
:10016800cc020000cc020000cc020000cc0200004f
:10017800cc020000cc020000cc020000cc0200003f
:10018800cc020000cc020000cc020000cc0200002f
:10019800cc020000cc020000cc020000cc0200001f
:1001a800cc020000cc020000cc020000cc0200000f
:1001b800cc020000cc020000cc020000cc020000ff
:1001c800cc020000cc020000cc020000cc020000ef
:1001d800cc020000cc020000cc020000cc020000df
:1001e800cc020000cc020000cc020000cc020000cf
:1001f800cc020000cc020000cc020000cc020000bf
:10020800cc020000cc020000cc020000cc020000ae
:10021800cc020000cc020000cc020000cc0200009e
:10022800cc020000cc020000cc020000cc0200008e
:10023800cc020000cc020000cc020000cc0200007e
:10024800cc020000cc020000cc020000cc0200006e
:10025800cc020000cc020000cc020000cc0200005e
:10026800cc020000cc020000cc020000cc0200004e
:0c027800cc020000cc020000cc02000010
:020000040000fa
:100400000fa421000eff27000e018800000000004d
:1004100000012000200288000c000700409e2100ff
:10042000010020000f000700000020000000e00095
:100430000200320000000200000000009a1b0200cf
:10044000000000000040da000000fe00e002200092
:100450000000e0000200320000202000900188002f
:1004600000000600a1028800800078000000eb0078
:100470001a003700e280400054a0b4009101ba0095
:10048000e280400054a0b4009102ba00e280400033
:1004900054a0b4000002eb00472bde00f507b200c9
:1004a000a6018800602ce10008003a000049eb003a
:1004b0000201e800020039003420ec0002f0a00044
:1004c0008301e900f9ff3e00040037006128e100e4
:1004d000010032000082eb00040007001101ba00a5
:1004e0000200e000e3ff3a000000060004d0a30091
:1004f000e20f49001c003900810278003549ba003a
:100500000201e800020039003420ec0002f0a000f3
:100510008301e9000f0032002549ba000201e8001a
:10052000020039003420ec0002f0a0008301e90051
:10053000080032000400e0000600320015c9ba00cd
:100540000201e800020039003420ec0002f0a000b3
:100550008301e9008180e80054a0b4000300e000ba
:10056000e2ff3a00000006009102ba000559780047
:100570008301e900f7ff3200c82ade000559780040
:100580008301e900f3ff32000400e000f1ff3200d4
:1005900011d9ba00eeff37000040da000000fe007b
:1005a00003f0a200889fbe008a9fbe008c1f7800c7
:1005b0009b010700a20133006450e1004f003200ac
:1005c0006420e1005200320003826c0007003b000f
:1005d0000905d0000306d000820f54000c065d0010
:1005e0000200390002003200890178000306780019
:1005f0008582550004003d000003fd008103fd00dd
:100600008502ea008b854200840f720002003b00e5
:1006100060001000e08018006011b8000005eb00d9
:100620007a28e1000a00390006007800c75ddd0085
:10063000f707b200878075002d00370082817100b6
:100640000a017800610560008180d1000080d3003c
:100650008502e900f9ff3b0006044000878448005a
:1006600002003b0060041400e0841c000988a30021
:10067000070032008a81710082817100610164008b
:100680008904d1000884d3008b05e80017003700e7
:100690000978a30013003a000b00e00013003400b7
:1006a0008b05e9000804440089844c000a44740066
:1006b0000978a3000d003a000b00e00007003400a9
:1006c0008b05e9000804440089844c0001003a00cd
:1006d0000b0020000978a300f7ff32000001eb00b7
:1006e00002003700828171000a01780011010700c1
:1006f0000cf0a70001f0a0005a0137006420e100cf
:1007000002003a00838f6c005a0133000801be00da
:100710000200be0053013700889fbe008a9fbe00c2
:100720008c1f78003e0107001002200002003b00f1
:1007300030ca8800420137008a0062006408e10084
:1007400002003a0030ca88004a0137006108e1001f
:10075000fcff32000800be000304780070000700b0
:1007600001f0a1000900070008f0a600040037000e
:100770000001be0091042400b0fd200088ff0700a6
:1007800009f0a70001f0a20036013700889fbe00e3
:100790008a9fbe008c9fbe000004be000b010700b4
:1007a0000800be00890678006420e10008003900d6
:1007b000040032000160a0001202200032ca88004a
:1007c0005300370091fc2300b0fd20004e0037009d
:1007d0000006eb0009f0a10003f82300020020004e
:1007e0000800be00900007000600340001f8230056
:1007f000000020000801be00490007000004be0000
:100800002c0020000800be0093e82300320a2300d9
:1008100085000700120034000801be00d1fd23004e
:10082000703d2b005fff07000005be00b3f32300ff
:10083000f27a26000800be001101070003f8230029
:100840000200200056ff07000801be0055ff070008
:100850000a01be00320007000004be000c06e800da
:100860000800be0001f0a100020020000398230050
:100870006d0007000800be00160035000801be002c
:10088000ff0007000005be0032cd2c0043fb230013
:1008900044ff0700809fbe001269280003d52b008b
:1008a0000a00be00f6000700620f210013ef2b00c4
:1008b0003cff07000a01be00f10007004f01be0027
:1008c000170007000801be00ed0007000801be0088
:1008d00034ff07000c00e0000b0032000c10a700f2
:1008e00001f0a200b2fd200093fc23006260e10051
:1008f0000400320022a9200063f023000c10a7009e
:1009000063f8230027ff07000df0a70001f0a20005
:100910004f06be004f05be004f04be00000006009b
:10092000889fbe008a9fbe008c1f7800bc00070015
:10093000c300330003866c006450e1002e003200d7
:100940006420e100330032006150e1002f003200ea
:100950006120e1003100320085855500eb07b000d1
:1009600009002000080420000500370008044400a6
:1009700089844c000a0031000603430087834b0042
:100980000001530081815b00f8ff33000203be00c9
:100990000800a0000804440089844c00f6ff3900d8
:1009a000c639dd008301730001003200130020000e
:1009b0008904d1000884d3000998a30005003200ff
:1009c0000800a7000300a0008904d1000884d30018
:1009d0008b05e8008904d1000884d3000001eb00f6
:1009e0000281d2005300070001f0a1000cf0a70023
:1009f00001f0a0009b0037006420e1009d00320060
:100a00000801be000200be00f7ff37006120e100d0
:100a1000980032006000b800f3ff370000002000ab
:100a200001f82700f0ff370014002000fd00370018
:100a30000001be00650007000470a70003f0a100dc
:100a40006509b100160032000d0035006828e1008c
:100a500006003500f0ff2f00f1ff27000300e00043
:100a600013003b00010028000000050000004000ca
:100a7000818048008502e900fcff3a000800370049
:100a8000f88f420002003c008000eb0000000500ef
:100a90008100d1000080d3008502e800fcff3a000d
:100aa0000300e00002003b0060001000e08018003e
:100ab000000006000001be00440007000470a7000b
:100ac00003f0a10003f8a30013003a006509b10088
:100ad00010003200090035006928e10002003500ed
:100ae000010028000000050000004000818048004f
:100af0008502e900fcff3a0000000600f88f420082
:100b0000050035008100d1000080d3008502e80097
:100b1000fcff3a00000006008000eb00000005002a
:100b20004f89de0082017800d90037006011b800db
:100b3000e700370081002000618055000b003d0078
:100b40000b00200061fe2f000100e1001d003400b9
:100b500082817100610164008904d1000884d3009e
:100b60000000e800faff3a00710020006100640014
:100b700003007000020060000900320061044400bc
:100b8000e0844c000988a500050032008b05e800d0
:100b90006808e10002003a008904d1000884d3000b
:100ba000f20f20000258e10005003d00c75ddd00a6
:100bb000f907b2008980750008007800000006007f
:100bc0000bf827008b00780000000500c70ade0044
:100bd000f107b200f50fb20008003200e1cf420089
:100be000020032000170a00024000500810f700097
:100bf000010032000408050044000500810f700068
:100c000002003a00140005008502e90000004000df
:100c100081c04800fcff3b000170a00024000500db
:100c20000004be00e9ff07000003be000405be008b
:100c30000200be00e5ff0700844f750000000600bb
:100c40000200be006450e100050036006420e100af
:100c5000020036000968a30001003a000800be0047
:100c60000160a0004f0678004f05be004f04be0093
:100c700000000600f0ff2f00f1ff2700f9ff37000a
:100c8000889fbe008a9fbe008c1f7800e4ff07008b
:100c9000ebff330003866c006450e1002400320057
:100ca0006420e100270032006150e10022003200a0
:100cb0006120e100210032008b854200eb07b1008a
:100cc0000134b800003ab8000804420089844a00a0
:100cd000013ab8000030b8008880400009014a009d
:100ce00004003300000040008180480002014900f8
:100cf0008b05e900c909dd008301700001003200a5
:100d000013002000c814de004814dd004709de008f
:100d10001200b200c808de000884700085ff0700da
:100d200001f0a1000cf0a70001f0a000cdff3700fa
:100d30006120e100cfff32000801be000200be00ca
:100d4000f7ff37006150e100fcff3a00c9ff3700b0
:100d5000889fbe008a9fbe008c1f78000004be00e2
:100d60009aff07000478a30026003a006120e10002
:100d70002500320009f8a30025003a006420e100b4
:100d800021003200f507b1000508a300020032007f
:100d900000004000818048006044b800031020003b
:100da0000200200000004000818048000805440047
:100db00089854c000a0541008b8549000a055000d1
:100dc0008b855800030033000a00be000204740043
:100dd000838474008301d1000281d300830f7100ea
:100de000f0ff3a008904d1000884d3006001490073
:100df00082017800c1adde00fb07b0004dff0700a7
:100e000098ff37000960a0000800be0095ff37007a
:100e10001202200032ca8800f0ff2f00f1ff2700e5
:100e200090ff3700889fbe008a9fbe00841f780015
:100e30007bff07004f00780011003300f0ff2f0008
:100e4000838f6c0006003b00040565000a00a700c4
:100e50000800370009f0a600100020000800370045
:100e6000820f5400838f5c000300390010002000c3
:100e700001003e000000200009f0a7000000ea0089
:100e80004f05be004f04be000000e0000000060059
:100e9000881f7800030478000300e00007003d008d
:100ea00060001000e080180060011900e081190066
:100eb00002003b0001f02d00030037000400070092
:100ec00008f0a70001f0a0004f0478000000060021
:100ed000889fbe008a9fbe000082700004027100dd
:100ee00004827100260032000004be000200be0031
:100ef0006011b8006b092000950220000182cf002c
:100f00000a0039000541b1000082cf000700390016
:100f10000541b1000982cf00040039000541b1004c
:100f20000882cf00010039000541b100054252009e
:100f3000120032000a003b008281710061016400ee
:100f40008100d1000080d3008984d3000884d300bd
:100f50008b05e8000442e800f7ff3a00070037007d
:100f60000804440089844c00000048008180480047
:100f70008b05e9000442e900f9ff3a00edfe0700a5
:100f80004f05be004f04be00000006000c00fa0032
:100f9000889fbe0000047800f4ff270054079800e3
:100fa0008004eb0019079800080f780028079800c4
:100fb000240c20003407980068015700ceb8970031
:100fc0000e007800060007001e027800094a78002b
:100fd0001e0014004f04be000080fa00000006004e
:100fe0003200fa00889fbe008a9fbe008c9fbe0020
:100ff000500f9800310f9800221798008006eb00e0
:101000007f023700be0890008100e800310f980091
:1010100054c2b300844f500006003a000102780029
:101020000006eb0001c3b30000c2b300b7c2b300b7
:10103000070037000000fb00de0890007b0207007d
:10104000e10f40006e0232008d06e8006c023700ae
:101050008402780034437800d2c2b300824f530038
:101060000900320005003c00804f530008003200a8
:10107000874f53000c003a0007003700814f5300a0
:1010800009003a00060037000c30a000f0ff3700de
:101090000c00a000eeff37000c10a000ecff3700a2
:1010a0000c20a000eaff3700620266000100320057
:1010b0000c00a10068026600010032000c20a100b3
:1010c0000602fb000403b100e90f52000c003e00d1
:1010d000050378000002eb00ea22b800b602fb002c
:1010e0000503b10004824200860278009603fb00eb
:1010f0000703b100e98f5300f7ff360008003700ff
:101100000002eb00a7c2b300874f530004003a006f
:10111000ae11900043027800231798008502e80082
:101120000003eb0036179800e6c2b300954f13009a
:101130000c003a000ce0a00064435300d54f1300ac
:1011400003003200050378000000eb0009003700bf
:10115000ae139000470078002717980030179800ca
:101160008502e8000503780009003700ea00b800ae
:101170000080430086027800b603fb000703b1003d
:10118000e98f5300f9ff360030179800f5ff37005c
:10119000b6427800360f9800c2c6b30082cf520024
:1011a000250032000f003c0036c6b30086cf520047
:1011b0007500320004003c00e0cf520015023200fe
:1011c0006b4353000f00370046c6b30086cf520072
:1011d000170032006543430086cf520089003a0071
:1011e0001300370036c7b30086cf52001f0032000d
:1011f00007003c006443530086cf520014003200c5
:101200000643e80086cf52007e003a001300370004
:1012100056c7b30086cf52007e00320063434300be
:1012200086cf520077003a00054f78000d00370056
:10123000054f780079003700f003660005012000b3
:10124000010032000500280005067600d0ff3700b7
:10125000054f78000c60a00070003700054f780043
:101260000c50a0000c70a0006c003700054f7800f7
:10127000ae119000c302780023179800050478008f
:10128000e08f520001003a00a8a021000803780076
:101290008002eb00010037008502e800850343006f
:1012a0000040eb00974f1000fbff3a0085047800e8
:1012b000be109000e08f500003003200898f500074
:1012c00001003100810478008002eb00890f520098
:1012d00001003600890252006806660018003a00d4
:1012e00009003700de089000000220007517980002
:1012f000ce010700fe129000e10f40000100320015
:101300008d06e8008502e900e08f5200f5ff3a0003
:101310008082eb000a003700080278003400fb00ee
:1013200004047800de08900075179800bf010700dc
:10133000fe129000e10f4000010032008d06e8002f
:10134000090278008404e900e00f5200f2ff3a003d
:10135000e00f5600aa0132000506780007003700aa
:10136000de08900000022000b0010700e10f4000fd
:10137000010032008d06e8000c06e900e00f56007f
:10138000f7ff3a009e0137002e119000c20278004c
:101390002217980005007800cf80de000101780058
:1013a00082017800600f9800710f98000217980072
:1013b000131798004800de00c80add0000807200a4
:1013c000004f78007003660009003200e04f5000c3
:1013d00007003200e14f400005003200104798003e
:1013e0004e5b90002647980029002000030037003c
:1013f000ce5b900017479800190020000e04e8000b
:10140000abff3700054f78000e047800190020006c
:10141000a7ff3700054f78000c0cb3008c02780052
:10142000050cb2002a003a00e00f560005003d000e
:101430002e1090004005be004004be00201798000a
:1014400016003700f00266000e003200ae12900067
:101450004501be0025179800320798004307980001
:1014600095029000cfaade00550798006507980006
:101470003e049000ce0490005e059000ee059000c2
:1014800006003700ae139000470478002717980035
:10149000cfc4de00090578008a057800e00f54000b
:1014a000e08f5c00e00f5d00e08f5d0025003d00f7
:1014b0003c00b3006000b8006011b80008045000a0
:1014c000898458000a0559008b8559001d00370092
:1014d000e00f560005003d002e1090004005be00b4
:1014e0004004be002017980016003700f002660086
:1014f0000e003200ae1290004501be002517980084
:1015000072079800030f98000003eb00160f980075
:101510008003eb00270f98007e0490008e0c900053
:101520001e0d9000ae0d9000060037002e109000aa
:101530004004780020179800090020000a002000cd
:101540000b002000be109000e08f500009003a0010
:101550001200200032179800e00f5400e08f5c006a
:10156000e00f5d00e08f5d00020032008001eb00c3
:10157000331798008c027800050cb200650f9800b4
:10158000050420006e0b9000850f53002c003200e4
:1015900003003c00e00f5300080032003c0037001d
:1015a00005082000ee0b9000858f530010003200dc
:1015b000050c2000858f530035003a000695210068
:1015c00015c0b3003600be003601be000040e10089
:1015d00001c8e10002d0e10003d8e1002b0039008e
:1015e0008542e800f4cf5200f6ff3a0027003700aa
:1015f00015c0b30000012000010020006011b800f8
:101600000040e10001c8e10002d0e10003d8e100a0
:101610001e003900460020000000d0008180d2006a
:101620000281d2008381d2000603e900faff3a006a
:101630008542e800f0cf5200f1ff3a001300370076
:1016400015c0b30080002000010020006011b80028
:101650000040e10001c8e10002d0e10003d8e10050
:101660000a003900370020000000d0008180d2003d
:101670000281d2008381d2008703e900faff3a0099
:101680008542e800f5cf5200f1ff3a00054f78009f
:101690009e02fb003e109000808f520002003d0031
:1016a000004f780004003700be109000858f500076
:1016b00001003d0035179800e00f52000300320092
:1016c000e3026600010032000402e9000500240084
:1016d00085026600060032003e119000820f520023
:1016e0000200340002025200010037000002eb0049
:1016f0009e02fb008001eb00430f9800850f520013
:101700000200340085025200450f98006402660012
:101710002c003200e202660061026600e08f520097
:1017200006003200b0022000e00f5200010032003b
:101730000080e800de08900004003700e00f52004f
:1017400006003200de08900000022000b70007000b
:10175000e10f4000010032008d06e8004e0a9000c3
:10176000e00f5200900032000802be000a03be00e3
:10177000ce0c9000de089000000320004417980073
:10178000751798005617980067179800a70007006c
:101790004e129000fe1290005e139000ee13900027
:1017a000e10f4000010032008d06e8008904e900e5
:1017b000f0ff3a00490f98000605be000404be0081
:1017c00079003700ce0a9000e08f520018003200f6
:1017d0006802660016003a000802be000a03be0056
:1017e000ce0c9000de089000000220004417980004
:1017f0007517980056179800671798008b00070018
:101800004e129000fe1290005e139000ee139000b6
:10181000e10f4000010032008d06e8008904e90074
:10182000f0ff3a00490f98000605be000404be0010
:10183000e202660061026600e08f5200060032009c
:10184000b0022000e00f5200010032000080e800ea
:10185000de08900004003700e00f52005200320012
:10186000de0890000002200070000700e10f400039
:101870004d0032008d06e8004b0037003e1390000b
:101880000603e90036179800ee0b90000c042000c8
:101890008c8f53002e00320003003c00e08f530079
:1018a0000800320039003700040820006e0890005c
:1018b000840f500012003200040c2000840f5000ee
:1018c00032003a00be109000430add0082942100ed
:1018d000020242005403be004402be000800be00e3
:1018e0000a01be00aa010700a40020000500200094
:1018f0006033b800af01070004c3b3002200370013
:10190000949f2100ae029000e08f5200010032004f
:10191000849e21003e139000c232dd000800be000c
:101920000a01be008502e900050033008301d100f1
:101930000281d3008180d3000080d300f9ff3700fb
:101940006f00600000004200104f78000f00370069
:10195000be139000e33ab8000800be000a01be00c2
:10196000040678000c06e900050033008301d1006d
:101970000281d3008180d3000080d300f9ff3700bb
:101980006742600000c3b300004f42001e00fb002e
:10199000de08900025000700e10f4000060032003d
:1019a0008d06e800040037008c0078000102b200c8
:1019b000210798000c1f98003e119000e00f510085
:1019c000aeff3a000e1e9000680666000c00320062
:1019d000ce099000e08f5100090034000306780022
:1019e000de0890000002200010000700e10f400018
:1019f000010032008d06e8000c06e900f8ff3a000d
:101a00003e0a900014407800004f7800e04f5000ec
:101a10007cfd3a000d0078004f06be004f05be0069
:101a20004f04be000080fa00000006000000fa002b
:101a3000889fbe000104780038029000e202620034
:101a40008084eb003b003200040378000620b200e3
:101a50009802900002003a00e08f520035003a00f0
:101a60000490a0003404980080047800f90fb200bc
:101a7000e08f520002003a00a8029000050c7800a6
:101a8000ea8f540005003a000408b20003003a004f
:101a900088007800d0002000e4ff070018029000c2
:101aa000d8029000850f52000b0032000402e800bb
:101ab0001404980018027800094a7800040ce80021
:101ac00015c0b30084a32100054a7800ea8f5400b2
:101ad00018003a00050037008800780009407800b7
:101ae00018000700800478001200370038029000c8
:101af0000410b2000f00320018019000a8009000fe
:101b0000480090005300070018029000840f500016
:101b100004003200380290000403b300340498003b
:101b20008084eb000002eb0014049800280290006f
:101b3000040c7800090078004f04be000080fa0011
:101b4000000006000200fa00889fbe00004f7800e7
:101b50000104780038029000840278000504b20085
:101b6000020032000000fb0033003700e202620096
:101b700005003a000403b3003404980015049800eb
:101b80000080eb002c003700d8049000e08f540058
:101b900006003a00120020008e00780048009000f5
:101ba0002c0007001904980022003700a8029000ba
:101bb000e08f520008003a00b5a3210025049800e8
:101bc000050c7800250020005504980015049800a5
:101bd0000430a0003404980018019000a800900080
:101be000480090001b000700280290008082eb0054
:101bf000150498001e4a7800040ce800a4c0b30045
:101c00009e4f12000b003a00380290000410b20000
:101c10000800320018019000a800900048009000d1
:101c20000c0007000002eb0014049800280290004a
:101c3000040c78001e00fb004f04be000080fa0078
:101c4000000006000000fa0000c0da000080fa0080
:101c5000000006000a00fa00e20f500022003e00d9
:101c6000f4d18000e10f52000600320087232000eb
:101c7000462320002423200005232000e08f53006a
:101c800004003a008722200046222000242220005f
:101c900005222000000028001500600003003a0023
:101ca000800b780007002800958a7300054020000b
:101cb0009482620001003a0014a0a0008202780021
:101cc00006003700940378000710b200fdff3200d1
:101cd000b103fb00070b78008502e900e08f52009a
:101ce000f8ff3a000800370034002000040f7800a5
:101cf0001007980021079800320798000e0078001e
:101d0000d0ff07003e019000020078000080fa003a
:101d1000000006000000fa00889fbe008a9fbe00f7
:101d20003004be002005be000404440085844c003d
:101d300006054d0087854d000898be000a90be003c
:101d40000440e10005c8e10006d0e10007d8e10049
:101d500002003100680040001008e8004f05be0096
:101d60004f04be000080fa00000006001000fa00d8
:101d7000889fbe008a9fbe000605be000404be0008
:101d80003002be002003be00049fbe000697be00c6
:101d90000802520089825a000a035b008b835b00b1
:101da0004407980055079800660798007707980041
:101db0000498be000698be00110020003e02be003e
:101dc0002e03be000820e10009a8e1000ab0e100ee
:101dd0000bb8e100010039008000eb001088100012
:101de0004f05be004f04be000080fa000000060050
:101df0001400fa00889fbe008a9fbe008c9fbe0020
:101e0000590007000605be000404be000006eb00f2
:101e10004c0798003c0798002c0798001c07980076
:101e20000c0f78000d0420004e039000be029000bd
:101e3000860343002e029000e00f530003003d0094
:101e40002a000700b3ff0700020037002700070041
:101e5000c6ff0700ce029000150f9800e08f5200d9
:101e6000090035004500070014002000050020008f
:101e70006033b800000072008180720002017300bc
:101e800083817300380007000c06e8008d0f5600b0
:101e9000e5ff3a001e0a9000e00f520004003d00ea
:101ea0000802be000a03be000e00780099ff07007a
:101eb0004eba9700e00f520006003a003e04be0002
:101ec0002e05be0058079800690798007a07980009
:101ed0000b0f9800290007004f06be004f05be00fb
:101ee0004f04be000080fa00000006004f2bde0009
:101ef00087037300470798004f23de008582420066
:101f000085027300350798009e0290004f2bde007b
:101f10000402420004027300240798001e027800a5
:101f20004f23de008582420085027300150798006a
:101f3000120007004f18de0004024200000f72007a
:101f40000e000700000040008180480002014900a7
:101f500083814900040007000802be000a03be0096
:101f60000e007800000006005007980061079800f6
:101f700072079800030f9800000006005e009000b2
:101f8000ee0090007e0190008e0990000000060097
:101f90000000fa00881f780018002000881f7800d1
:101fa00093ff07008f87e9004f0478000080fa0054
:101fb000000006000000fa00801feb008cff070005
:101fc0008f87e9000080fa00000006000000fa0098
:101fd000889fbe008a9fbe00e00f5000e08f58002f
:101fe000e00f5900e08f59000c003d006044b8003c
:101ff0006055b8000000540081805c0002015d0063
:1020000083815d00180020001600070008003d00d5
:10201000190007000004eb00050037000004eb0086
:102020001000070002003d00130007001800200008
:10203000d7ff0700e00f5400060032006022b8000e
:102040006033b8000000520081805a0002015b003a
:1020500083815b004f05be004f04be000080fa0084
:1020600000000600e00f5200e08f5a00e00f5b0016
:10207000e08f5b00000006006044b8006055b800c7
:102080000402540085825c0006035d0087835d00c6
:10209000000006000000fa00889fbe008a9fbe0074
:1020a0008c1f7800e00f5000e08f5800e00f5900bf
:1020b000e08f59000d003d006044b8006055b80045
:1020c0000000540081805c0002015d0083815d009e
:1020d0001c0020000820e10009a8e1000ab0e1008e
:1020e0000bb8e1000d003d00080037000006eb00d2
:1020f000e00f5200e08f5a00e00f5b00e08f5b00c2
:1021000006003d006044b8006055b8000402540069
:1021100085825c0006035d0087835d00a5ff0700e4
:10212000e00f5600060032006022b8006033b800ad
:102130000000520081805a0002015b0083815b0035
:102140004f0678004f05be004f04be000080fa0025
:042150000000060085
:020000040000fa
:10215400256c0000642c0000256c0000642c000039
:10216400256c0000642c0000256c0000642c000029
:10217400256c0000640d00000a0000005265000098
:1021840073650000740d00000a0000005a65000029
:10219400726f00000d0a0000005300006c6500001f
:0c21a400657000000d0a00000000000043
:020000040000fa
:1021b0000000fa00889fbe008182d1000082d30017
:1021c000f89d250079f325000404540085845c0003
:1021d0000200200003f02300a9fa07000801be0056
:1021e000a7fa07000001be000800be00a4fa07001d
:1021f0000001be000000200001fc2300e8f80700f9
:102200000001be000800be009dfa07004f04be009a
:102210000080fa00000006000000fa0000a821007b
:1022200061002000aa020700a000200005070700a7
:10223000bf02070000cdb300cf02070000c1b3000a
:10224000cd02070030c0b300cb020700c402070074
:1022500000cdb300c802070050c1b300c60207009a
:1022600000c8b300c4020700bd02070000cdb300e0
:10227000c102070060c1b300bf02070010c0b30075
:10228000bd020700b602070000cdb300ba02070086
:1022900080c1b300b802070010c0b300b602070047
:1022a000a90207000000eb00d0020700d3020700dc
:1022b00000cdb300f202070020c0b300f002070017
:1022c000d902070010cdb300ed020700f9020700a4
:1022d000e090210002030700f6020700f0902100c1
:1022e000ff020700f302070000912100fc02070033
:1022f000f002070010912100f9020700ed0207002b
:1023000020912100f6020700ea0207003091210027
:1023100002030700cf0207002c61a8002de1a800ee
:10232000544280000400a0000410a1000420a0007a
:10233000544288000288a9002288a800240880004e
:102340000440a0000450a10024088800e4222200d8
:102350001408880005e1a800f4ff2c000542800065
:102360000502620004e0a000044288000068a900a1
:102370002068a8000080fa00000006001600fa009d
:10238000889fbe008a9fbe008c9fbe00200f9800d1
:1023900040c9800051c9800048c9800059c98000e7
:1023a0006ac980007bc980006cc980007dc980003b
:1023b0000001be007bf807000801be0030fa0700ec
:1023c0000200200003f8230075f807000004be0097
:1023d0000a01be000a00be0072f807000c01be0030
:1023e00027fa07000001be000800be006df80700d4
:1023f0000005be0060c9800071c9800082c98000ec
:1024000093c9800044c9800055c98000040f98001a
:10241000150f9800acc98000bdc9800064c9800058
:1024200075c980006407980075079800a4c98000ea
:10243000b5c98000440798005507980044c980003a
:1024400055c98000240798003507980084c980008a
:1024500095c98000048fbe0009fa07000004be0081
:102460000c01be000e0890009e08900004fa0700c0
:102470000001be000800be0049f807000001be00d0
:1024800048f807000a01be00a3f8070012ee220078
:1024900053262400faf90700ae0a9000808abe0095
:1024a0004e019000de0190006e009000fe00900052
:1024b000f3f907000004be001e01be002e009000cc
:1024c000be009000eef907000001be000800be004b
:1024d00034f807000001be0032f807000001be001a
:1024e0000a00be008cf8070012ee220053262400da
:1024f000e3f9070002002000432b240028f807001e
:102500002e0a900020029800310298004f06be006b
:102510004f05be004f04be000080fa000000060018
:102520000800fa00889fbe008a9fbe008c9fbe00f4
:10253000a0c88000b1c88000a2c88000b3c88000d5
:10254000ccc88000ddc88000cac88000dbc880001d
:10255000e4c88000f5c8800024079800350798007b
:10256000e4c88000f5c88000048fbe00c4f90700ed
:102570000004be000a01be000c00be00c0f9070046
:102580000001be000800be0006f807000004be00ff
:102590001e01be002e009000be009000b8f907009a
:1025a0000001be000800be00fef70700e8f90700c2
:1025b0004f06be004f05be004f04be000080fa006b
:1025c000000006000000fa002839ef0004f823009c
:1025d00054c988006022b80064c9880075c98800a1
:1025e00084c9880095c98800a4c98800b5c9880035
:1025f0000080fa00000006003600f800809fbe0050
:10260000829fbe00849fbe00869fbe00889fbe0042
:102610003200f80000202000900188000000000037
:102620000000fa00180980002909800020c98000f4
:1026300031c980000000540081805c003bf9070034
:10264000023b280053c82400b5f8070000c98800e1
:1026500011c9880028c9880039c988003e020700ce
:102660000288a9000080fa003200f9004f04be0081
:102670004f03be004f02be004f01be004f00be0020
:102680003600f900004006003600f800809fbe00ca
:10269000829fbe00849fbe00869fbe00889fbe00b2
:1026a0008a9fbe008c9fbe003200f80000202000f0
:1026b00090018800000000003c00fa00330207008f
:1026c000e00f5000760132003402070080c880001d
:1026d000cf80de0012f9070002192c0093d72300e7
:1026e00067f90700a0c88800b1c8880070c88000da
:1026f000cf80de000af9070002192c0093d72300cf
:102700005ff90700c0c88800d1c888001219ee0020
:10271000cf80de0002f9070002192c0093d72300b6
:1027200057f90700e0c88800f1c88800a0c88000f9
:10273000b1c88000ccc88000ddc88000e4c880003b
:10274000f5c88000641798007517980064c9800068
:1027500075c98000441f9800551f9800a4c98000c7
:10276000b5c98000241f9800351f980044c9800017
:1027700055c98000441798005517980084c98000f7
:1027800095c98000041f9800151f980064c9800037
:1027900075c98000041798001517980084c9800037
:1027a00095c98000640f9800750f980044c9800097
:1027b00055c98000440f9800550f9800a4c98000a7
:1027c000b5c98000240f9800350f9800859221002c
:1027d00007000900351f78000e01b1000ac980000a
:1027e0001bc9800052a32f00e3c8230024f907006f
:1027f0000004be000200200003f023000a00be0017
:102800001ff907000001be000800be001cf9070008
:10281000201798003117980004c9800015c980005e
:10282000040f9800150f980052a32f00e3c823004f
:102830000c00be0012f907000005be002e19900022
:10284000be1990004e189000de1890000cf9070099
:102850000004be000e1990009e1990004e109000ca
:10286000de10900006f907000001be000800be005f
:102870004cf707000001be004af70700d2cc2c003d
:10288000c3d42300fef807000001be000a00be000a
:1028900043f707000004be000200200003f02300fd
:1028a0000e0890009e089000f5f807000001be0099
:1028b0000800be00f2f807000005be0004c9800051
:1028c00015c98000441f9800551f980052a32f007f
:1028d000e3c823006e109000fe109000e8f8070097
:1028e0000006be006e099000fe0990000e109000d8
:1028f0009e109000e2f807000004be002e09900030
:10290000be0990004e089000de089000dcf8070039
:102910000001be000800be0021f707000001be0054
:1029200020f70700d2cc2c00c3d42300d4f8070032
:102930000001be000c00be001af707000004be0034
:102940000200200003f023004e189000de189000d3
:10295000cbf807000001be000800be00c8f8070061
:102960000004be0044c9800055c980004417980087
:10297000551798002e019000be01900003f0a200b0
:102980002e109000be109000bdf807000006be009b
:102990004e019000de0190000a00be00b8f807006a
:1029a0000001be000c00be00fdf607000006be00e0
:1029b0006e019000fe0190000800be00b0f8070014
:1029c0000001be000c00be00f5f607000001be00cd
:1029d0004e109000de109000f2f6070040c988000b
:1029e00051c9880064c9800075c9800044179800e7
:1029f000551798001e06be000c01be002e10900058
:102a0000be1090009ef80700001f9800111f98004c
:102a10004e019000de0190000800be0098f807000b
:102a20000001be000e1890009e189000ddf6070011
:102a3000001f9800111f98006e019000fe01900089
:102a40000a00be008ef807000001be000e189000bc
:102a50009e189000d2f607000001be004e109000b4
:102a6000de109000cff6070060c9880071c98800a9
:102a700084c9800095c980004417980055179800b4
:102a80000c01be000a00be007df80700001f980080
:102a9000111f98002e019000be0190000800be009a
:102aa00077f807000001be000e1890009e189000f5
:102ab000bbf60700001f9800111f98006e019000e0
:102ac000fe0190002e109000be1090006cf80700e0
:102ad0000001be000e1890009e189000b1f607008d
:102ae0000001be004e109000de109000adf6070011
:102af00080c9880091c98800a4c98000b5c9800038
:102b0000241f9800351f98000c01be000800be006d
:102b10005bf807000004be002e019000be0190008b
:102b20000a00be0056f807000001be000800be0003
:102b30009cf607000004be004e019000de019000ec
:102b40002e109000be1090004df807000001be004e
:102b50000800be0092f607000001be002e1890008b
:102b6000be1890008ff60700a0c98800b1c9880080
:102b700040c9800051c9800042c9800053c980000b
:102b80006cc980007dc980006ac980007bc9800053
:102b900084c9800095c980002417980035179800d3
:102ba00084c9800095c98000641798007517980043
:102bb000a4c98000b5c98000441f9800551f980023
:102bc000a4c98000b5c98000241f9800351f980053
:102bd0002bf807000004be000a01be000c00be0076
:102be00027f807000001be000800be006df60700d0
:102bf0000004be006e119000fe1190002e10900097
:102c0000be1090001ef807000001be000800be00c4
:102c100064f607000004be002e199000be19900053
:102c20004e189000de18900015f807000001be0055
:102c30000800be005bf607005dfd07000004be0053
:102c400040c9800051c980000801be000cf807008f
:102c500040c9880051c9880060c9800071c98000de
:102c60000801be0006f8070060c9880071c9880025
:102c700080c9800091c980000801be0000f80700eb
:102c800080c9880091c98800a0c98000b1c98000ae
:102c90000801be00faf70700a0c98800b1c9880082
:102ca0000068a9000080fa003200f9004f06be005b
:102cb0004f05be004f04be004f03be004f02be00d2
:102cc0004f01be004f00be003600f9000040060074
:102cd0000000fa0092f707000001be00003b280048
:102ce00051c824000ef707000200200003f823005b
:102cf0002bf60700a29929001311240028f60700db
:102d00004bf70700201088000722a8000702a80040
:102d100006a2a900444280000440a1000406b300ba
:102d20004442880007e2a8000080fa000000060084
:102d30000000fa000602a8000602ab00feff3a00ff
:102d40000080fa00000006000000fa000642a80019
:102d50000642ab00feff3a000080fa0000000600c9
:102d60000000fa000622a8000622ab00feff3a008f
:102d70000080fa00000006000000fa000000fb00de
:102d800010108800050024004610800006826200b2
:102d9000e00f5200fcff3a000080fa00000006003d
:102da0000000fa000662a8000662ab00feff3a00cf
:102db000001080000080fa00000006000000fa0009
:102dc0000682a8000682ab00feff3a000080fa00ef
:102dd000000006000000fa0006a2a800f7ff0700a6
:102de00006a2a9000080fa00000006000000fa0018
:102df00050c088000080fa00000006000000fa00c1
:102e000050c0800000024000c580210004824200c2
:102e100005002800050a78000002e80054c0880078
:102e20000080fa00000006000000fa0050c0800098
:102e300000024000c58021000482420005002400f9
:102e4000050a78000002e80054c088000080fa00fb
:102e5000000006000000fa0050c0800000024000a0
:102e6000c58021000482420005002200050a780086
:102e70000002e80054c088000080fa00000006004c
:102e80000000fa008042780050c08000000240003c
:102e9000c6802100040243008582fb0005c0a0001b
:102ea000050a78000002e80054c088000080fa009b
:102eb000000006000000fa0050c080000002400040
:102ec000c58021000482420005802000050a7800a8
:102ed0000002e80054c088000080fa0000000600ec
:102ee0000000fa000003780050c08000000240009b
:102ef000c588210084824200860a7800c5802100ae
:102f00000482420005402000050a78000002e80023
:102f100054c088000080fa00000006000000fa009b
:102f20000003780050c0800000024000c5882100e6
:102f300084824200860a7800c58021000482420013
:102f400005202000050a78000002e80054c088002f
:102f50000080fa00000006000000fa000002eb000a
:102f600064c8880054c088000228a8002228a8004d
:102f70000080fa00000006000000fa002208d500d8
:102f8000610060000080fa00000006000000fa0006
:102f900060c880000080fa00000006000000fa000f
:102fa0000c39ef000080fa0000000600849fbe008c
:102fb000861f78003200f800042020009401880069
:102fc000000000000000fa000228a90054c08000a0
:102fd0008402e80055c0880084024200c6802100b7
:102fe0008502430095027800068020000683620077
:102ff000020032000662a8002a00370006402000c6
:1030000006836200090032000510800004024200bd
:10301000c68821000402430014027800054a7800a3
:1030200006a2a9000682a8001e00370006002100a3
:103030000683620002003200151088001900370074
:103040000600240006836200020032000622a80067
:1030500014003700050378000620b2000900320092
:103060000510800004024200c688210004024300cb
:1030700014027800054a780006a2a8000682a8007b
:1030800008003700e08f520002003d000602a80051
:10309000040037002228a9000642a80014002000de
:1030a00064c888000080fa003200f9004f037800fd
:1030b0004f02be00004006000000fa00881f7800a2
:1030c0000204780096f6070002002000030824009e
:1030d000ebf607000001be00003b280051c82400a9
:1030e0000ff607000200200003f823002cf507006c
:1030f0000200200003f023002af507006df6070008
:1031000040118800e00f54000500320004118000d7
:103110000480a1000490a000041188000200370080
:10312000f0cf2f002022b60021e2a8002062a800e4
:1031300023e2a8002342a800000023004408b700af
:1031400000e0a10020428800344280003400b30037
:103150000420a100344288000168a9002168a80069
:103160004f0478000080fa00000006000000fa001a
:103170002202ab00010032000168a8002222ab004d
:10318000010032002222a90020a0800044c080005b
:1031900004005000f03fb2000080fa00000006007a
:1031a0000000fa0044c08000654021008482420093
:1031b000954278000402e80044c08800f03f2000f7
:1031c0000838b600054078000080fa0000000600cc
:1031d0000000fa001080800004808000040050008d
:1031e0000080ea00f03fb2000080fa000000060014
:1031f0000000fa0014808000450021008482420013
:10320000804a78000402e80014808800f03f200023
:103210000230b60004002100054180000502620072
:10322000e00f520002003a000188a8002188a8009f
:103230000080fa00000006000000fa00881f7800f5
:103240000004780018407800e04f5000040032007d
:10325000e7ff070058407800e04f5000fcff3a00bd
:103260004f0478000080fa00000006000000fa0019
:103270000818f8000414f9000638ef000080fa007e
:10328000000006000000fa000210f8000010f9002b
:103290000080fa00000006000000fa0030c0800044
:1032a0000080fa00000006000000fa000638ef0077
:1032b0000080fa00000006000000fa000000210073
:1032c0002008b6000000e9004f00de000080fa0090
:1032d00000000600801f7800849fbe00861f7800d3
:1032e0003200f8000020200090018800000000005b
:1032f0000000fa002202ab000a0032006640210002
:10330000f03f200024a0800035118000040243001b
:10331000054a78000434ec000434b6002202ab0005
:10332000f8ff3a000168a9000080fa003200f900b5
:103330004f0378004f02be004f00780000400600a7
:10334000801f7800849fbe00869fbe003200f80078
:103350000020200090018800000000000000fa001a
:103360002188a9000188a90047002100f03f200022
:10337000062020000580800014808000848f520089
:103380000b00320004808000048243001402fb0022
:10339000241188000030ec000030b60015118000c8
:1033a00005026300e00f5200f2ff32002188a800fe
:1033b0000080fa003200f9004f03be004f02be0049
:0833c0004f00780000400600f8
:020000040000fa
:1033c800001000000a0800008000000044190000f6
:1033d80002000000800000000a180000040100003c
:1033e800800000000e1900001a0000008000000094
:1033f8002819000010000000820000000000800072
:103408003f00000000000000000000000000000075
:1034180000000000381900000400000080000000cf
:103428003c19000004000000800000004019000062
:10343800040000008000000046190000020000009f
:1034480080000000e81900002a0000008200000047
:1034580030313200333435003637380039414200d4
:1034680043444500460030003132330034353600dd
:1034780037383900616263006465660000286e00b1
:10348800756c6c002900000048190000a0000000bd
:1034980082000000010000000000000000000a0097
:1034a80000000000000000000064000000000000b0
:1034b80000000000e8030000000000000000100009
:1034c800270000000000000000a0860001000000a6
:1034d8000000000040420f000000000000008000d3
:1034e80096980000000000000000e100f5050000cb
:1034f8000000000000ca9a003b0000000000000025
:10350800e40b5400020000000000e80076481700b1
:10351800000000000010a500d4e800000000000032
:10352800a0724e0018090000000040007a10f30055
:103538005a0000000080c600a47e8d000300000031
:1035480000c16f00f2862300000000008a5d780049
:103558004563010000006400a7b3b600e00d000059
:1035680000e889000423c7008a000000381a000018
:103578000600000080000000121a0000260000006b
:1035880082000000391a000000391a000900000002
:10359800000200003b1a0000003b1a000e02010066
:1035a8000000000000000000000000000602020009
:1035b80000000000121a00003e1a0000020000007d
:0c35c80082000000010000000000000074
:020000040000fa
:1035d4000000fa0014002000747088000002eb0060
:1035e400f4708800747188002a2ea800052ea800a3
:1035f40014aea800150ea800152ea800048ea8006d
:1036040010eea800110ea900012ea900010ea800b9
:10361400108ea80010aea900208ea80020aea8002d
:10362400206ea800112ea900008ea900202ea8004b
:10363400200ea90004f82f002636800086026200be
:103644007502b3002536880005fc2f00373480004e
:10365400878262000500a00035348800e6358000ca
:10366400860262008501b300e5358800f50f280065
:10367400e6358000868362000640220006837300dc
:10368400e635880007358000878262000630230013
:1036940086827200053588001535800005026200b7
:1036a4001403b3001435880014022000343a88004f
:1036b400f0f32f004427b60000fe2f004427b60085
:1036c400a50920003600200084072000377420005c
:1036d400844b7800854b7800864b7800163a80003e
:1036e4000600a00075052000640420002774200053
:1036f400844b7800854b7800864b780006002700c1
:1037040005002300173a800007026300850f52006a
:10371400fcff3a0005022000163a8000068262008f
:10372400e00f5200fcff32000080fa0000000600a7
:103734000000fa00a6ff07000001eb0000202c00a7
:10374400110020005bfe07006b000700bd000700ae
:10375400880107000701070050010700adfa0700c0
:1037640007000700550007006b000700c7000700ab
:103774008b0107000d0107000a000700faff37005c
:103784000000fa0004e62a00b4098800a40020001e
:10379400c40988003a61a8003be1a8000080fa004f
:1037a400000006001004fa00889fbe008a9fbe0035
:1037b4008c9fbe000688ab003b0032000688a9003f
:1037c400240ea8000e007800ebfa070053fb070054
:1037d4000004be0002002000832c24002e00900070
:1037e400be00900025f5070090f407000005be0018
:1037f40002002000832c24001e00be001ff50700d9
:103804008af407000006be0030010700864020004d
:103814000e03430086037800801b7800810b780038
:1038240025010700c64020000e03430086037800ec
:10383400801b7800810b780002002000832c240078
:103844000800be000df5070078f40700809fbe0055
:103854008a9fbe008c9fbe00864020000e0343005a
:10386400860378003702780097027800849fbe00b0
:10387400c64020000e034300860378003702780018
:1038840097027800849fbe00a40a2900841f780050
:1038940068004700bcf507006800470065fe0700a4
:1038a400240ea900f68757004f06be004f05be0040
:1038b4004f04be000080fa00000006000000fa0079
:1038c400000c29005bfe07000080fa0000000600df
:1038d4000000fa00800c290056fe07000080fa0060
:1038e400000006000000fa00f00c290051fe070059
:1038f4000080fa00000006000000fa000003200027
:103904001021b700745623006408880011e1a80050
:103914000080fa00000006000000fa0004082000fd
:103924000540800005026200e00f520026003200cc
:1039340000e8a900e493210014427800e04f52000b
:1039440020003200e5c98000e18f52000c003200f3
:1039540003003900e28f520018003a0010003700cb
:103964004222dd0070026200f5fe2f002670800006
:103974008682620004827200247088000f0037007f
:10398400610262004422dd00f5fe2f0026708000f3
:103994008682620004827200247088000700370067
:1039a4000402d00070026200f5fe2f002670800031
:1039b4008682620004827200247088003e79ed00e1
:1039c40001003700048ea8000080fa000000060001
:1039d4000000fa0080027800e49321001442780089
:1039e400e04f52000b003a00e08f52000300320017
:1039f400e28f520006003e000300370070c0b3009f
:103a04003ef9b70002003700c0c3b3003ef9b70067
:103a1400e5c988000080fa00000006000000fa00f2
:103a2400048ea8003e79ef000080fa000000060032
:103a34000000fa00048ea9003e79ef000080fa002d
:103a4400000006000000fa002143a800000e200038
:103a54002023b7002043a80034f82f001519800054
:103a640005026200c403b3001419880000f02100a9
:103a74002423b70024e3ef0000fc2f002823b60022
:103a840021e3a8000080fa00000006000000fa000c
:103a9400040022000540800005026200e00f52008d
:103aa4002d00320001a8a900001880000203b40010
:103ab40024188000040040003418800004004000f2
:103ac40044188000040040005418800004004000a2
:103ad4006418800004004000741880000400400052
:103ae4008418800004004000941880000400400002
:103af400a418800004004000b418800004004000b2
:103b0400c418800004004000d41880000400400061
:103b1400e418800004004000f41880000400400011
:103b24000100200000f4070032332300338d23000a
:103b340052f4070000ca880011ca8800020020005d
:103b440003062400b7f30700e00f500002003d0015
:103b5400200020009eff07000080fa0000000600fd
:103b64000000fa0000ca800011ca80000080fa0038
:103b7400000006000000fa001e61a80000032000f7
:103b84001e21b7001fe1a8000080fa000000060013
:103b94000000fa004067a9000002eb00b4088800a6
:103ba400a40888000080fa00000006000000fa0063
:103bb400889fbe008a9fbe003f0007000004be002d
:103bc400c4c98000d5c98000840f5000858f580077
:103bd40001003200eeff0700c8c98800d9c9880077
:103be400a4088000b5088000c61f2b00374e2000b3
:103bf400860f5200878f5a001f00360039ff0700d6
:103c0400400620008e00070089ff070000fc2f00fb
:103c14008626b600152ea900052ea90014aea9000b
:103c240040a7a8001a0020002b0320000040fe003b
:103c34007aff0700052ea8000a007800800007001c
:103c44001d0007000004be000b0078007c00070084
:103c540019000700880f5000898f580001003200b6
:103c6400cbff070072ff0700052ea9004067ab00d9
:103c7400eeff3a000000fe004f05be004f04be00f8
:103c84000080fa00000006000000fa00c0ff0700f0
:103c94001fe1a9000080fa00000006000000fa00fd
:103ca400c301a800c1e1a8002c61a8002de1a8006f
:103cb4000080fa00000006000000fa00300e8000c8
:103cc400510e80000080fa00000006000000fa0097
:103cd400889fbe008a9fbe000300fc00640e800023
:103ce4009a0e8000ab0e8000e00f520003003400f7
:103cf4001400200024ca8800040037006000b800c3
:103d0400e00f520011003d0044b9ef0020ca8000ca
:103d1400cf80de0081f30700023b280053d024004b
:103d2400d6f307000004be000a00be007bf30700c0
:103d34000001be000800be00f8f2070002002000e7
:103d440003f0230016f2070038f307004f05be0006
:103d54004f04be000080fa00000006000000fa00d4
:103d64000002eb00540e8800340e88000080fa0034
:103d7400000006000000fa00c248a8007442800057
:103d84000440a1000450a0000460a1007442880013
:103d940003a8a90023a8a8000080fa0000000600d8
:103da4000000fa004007ab0006003200222eab00f0
:103db40004003a00b4ff07001000200004ff0700cd
:103dc400090037004007a900222eab0006003a0084
:103dd4006fff0700e1ff0700f9f907000000eb009f
:103de400fbfe0700bafe07000080fa000000060090
:103df4003600f800809fbe00829fbe00849fbe00f4
:103e0400869fbe003200f800002020009001880048
:103e1400000000000000fa005dff070003a8a900ed
:103e24000080fa003200f9004f03be004f02be00ca
:103e34004f01be004f00be003600f90000400600ee
:103e44000000fa0004002800240888000003eb00a6
:103e5400758b2800090037000608880004088000d4
:103e6400850f5200fdff3600060888000408800014
:103e7400850f5200fdff36000000e900e00f5000fe
:0c3e8400f5ff3a000080fa000000060084
:020000040000fa
:02000004000af0
:04afe000dfff00008f
:020000040000fa
:02000004000af0
:04afe80079ff0000ed
:020000040000fa
:02000004000af0
:04afec007eff0000e4
:020000040000fa
:02000004000af0
:04aff00078ff0000e6
:00000001FF
